:020000040800F2
:1000000000000320CD0300081D0400081D040008A3
:100010001D0400081D0400081D0400080000000065
:100020000000000000000000000000001D040008A7
:100030001D040008000000001D0400081D04000845
:100040001D0400081D0400081D0400081D0400080C
:100050001D0400081D0400081D0400081D040008FC
:100060001D0400081D0400081D0400081D040008EC
:100070001D0400081D0400081D0400081D040008DC
:100080001D0400081D0400081D0400081D040008CC
:100090001D0400081D0400081D0400081D040008BC
:1000A0001D0400081D0400081D0400081D040008AC
:1000B0001D0400081D0400081D0400081D0400089C
:1000C0001D0400081D0400081D0400081D0400088C
:1000D0001D0400081D0400081D0400081D0400087C
:1000E0001D0400081D0400081D0400081D0400086C
:1000F0001D0400081D0400081D0400081D0400085C
:100100001D0400081D0400081D0400081D0400084B
:100110001D0400081D0400081D0400081D0400083B
:100120001D0400081D0400081D0400081D0400082B
:100130001D0400081D0400081D0400081D0400081B
:100140001D0400081D0400081D0400081D0400080B
:100150001D0400081D0400081D0400081D040008FB
:100160001D0400081D0400081D0400081D040008EB
:100170001D0400081D0400081D0400080000000004
:100180001D0400081D0400081D0400081D040008CB
:100190001D0400081D0400081D0400081D040008BB
:0C01A0001D0400081D0400081D040008D8
:1001AC00B0B487B000AF064B3C1D1D460FCD0FC43D
:1001BC002B681A46228002341B0C237000BFFDE70B
:1001CC005805000880B400AF164BD3F88830154A98
:1001DC0043F47003C2F88830134B1B68124A43F087
:1001EC0001031360104B00229A600F4B1B680E4AE0
:1001FC0023F0847323F4803313600B4B0B4A5A6047
:10020C00094B1B68084A23F480231360064B002219
:10021C00DA60044B4FF000629A6000BFBD465DF897
:10022C00047B704700ED00E00038024010300024E1
:10023C0080B487B000AF00233B6100237B610223B5
:10024C00FB600023BB6002237B60354B9B6803F093
:10025C000C033B613B69082B11D03B69082B44D83C
:10026C003B69002B03D03B69042B04D03DE02D4BA4
:10027C002D4A1A603DE02B4B2C4A1A6039E0284B72
:10028C005B689B0D03F00103BB60254B5B6803F0BF
:10029C003F037B60BB68002B0CD0244A7B68B2FB0D
:1002AC00F3F31F4A52689209C2F3080202FB03F3EC
:1002BC007B610BE01C4A7B68B2FBF3F3184A526873
:1002CC009209C2F3080202FB03F37B61144B5B68D7
:1002DC001B0C03F0030301335B00FB607A69FB68C2
:1002EC00B2FBF3F30F4A136003E00E4B0E4A1A6095
:1002FC0000BF0B4B9B681B0903F00F030C4AD35C2C
:10030C00DBB23B61074B1A683B6922FA03F3054ADF
:10031C00136000BF1C37BD465DF8047B704700BFFF
:10032C0000380240000000200024F40000127A0083
:10033C006C0500080348044B834202D0034B03B105
:10034C00184770470800002008000020000000003B
:10035C000548064B1B1AD90F01EBA301491002D01B
:10036C00034B03B118477047080000200800002019
:10037C000000000010B5064C237843B9FFF7DAFFF4
:10038C00044B13B10448AFF300800123237010BD5C
:10039C0008000020000000004005000808B5054BCF
:1003AC001BB105490548AFF30080BDE80840FFF7D5
:1003BC00CFBF00BF000000000C000020400500086B
:1003CC00DFF834D00D480E490E4A002302E0D45811
:1003DC00C4500433C4188C42F9D30B4A0B4C002381
:1003EC0001E013600432A242FBD3FFF7EBFE00F0F6
:1003FC0011F8FFF7D5FE7047000003200000002025
:10040C00080000208805000808000020BC0100201E
:10041C00FEE7000070B50F4B0F4DAB42A3EB05068A
:10042C0007D0B610002455F8043B01349847A64277
:10043C00F9D800F07FF8094D094B5E1BAB424FEA2F
:10044C00A60606D0002455F8043B01349847A64272
:10045C00F9D870BD7C0500087C0500087C050008F7
:10046C0084050008704700BF704700BF024B13B1F2
:10047C00024800F005B8704700000000990400081D
:10048C00002301461A46184600F014B838B5074D3B
:10049C00074C2C1BA41005D0013C55F8043D984783
:1004AC00002CF9D1BDE8384000F04AB888050008A6
:1004BC00840500082DE9F8431B4D0646286898462C
:1004CC000F469146FFF7CEFF184B1C681CB32868EB
:1004DC0065681F2D22DC4EB96B1C0235636044F835
:1004EC002570FFF7C1FF0020BDE8F88304EB850100
:1004FC000123C1F88890D4F88821AB401A43022E0E
:10050C00C4F88821C1F80881E6D1D4F88C211A43AB
:10051C00C4F88C21E0E7064C1C60D8E7FFF7A4FF79
:10052C004FF0FF30E0E700BF04000020280000205F
:10053C002C000020F8B500BFF8BC08BC9E467047E4
:0C054C00F8B500BFF8BC08BC9E46704724
:1005580048656C6C6F2066726F6D2053544D333252
:100568000D0A000000000000000000000102030462
:040578000607080961
:08057C0079040008A90300083E
:0405840081030008E7
:080588000024F400240000200F
:04000005080003CD1F
:00000001FF
